:03000000020345B3
:0C034500787FE4F6D8FD75816C02038C13
:1004A40002690000026B0000025F000002670000A6
:0C04B4000661005A005A005A0241000282
:1004C9001204E375D7EA75D6FF438E1043AF04D201
:0A04D900AFD2B5C2B2C2B3C2B42262
:100066001204C912047D12043EE542640145416052
:100076000302018EF53FF540AF4074212FF8E66488
:1000860073600302017A74222FF8E66431704574B6
:10009600242FF8E6FF12000E7C007D0A1204F9C038
:1000A60006C00774232540F8E6FF12000E7C007D8B
:1000B600641204F9D0E02FFDD0E03EFCC004C00578
:1000C60074252540F8E6FF12000ED0E02FF562D029
:1000D600E03EF561AF4074222FF8E6643270457455
:1000E600242FF8E6FF12000E7C007D0A1204F9C0E8
:1000F60006C00774232540F8E6FF12000E7C007D3B
:10010600641204F9D0E02FFDD0E03EFCC004C00527
:1001160074252540F8E6FF12000ED0E02FF564D0D6
:10012600E03EF563AF4074222FF8E6643370457401
:10013600242FF8E6FF12000E7C007D0A1204F9C097
:1001460006C00774232540F8E6FF12000E7C007DEA
:10015600641204F9D0E02FFDD0E03EFCC004C005D7
:1001660074252540F8E6FF12000ED0E02FF566D084
:10017600E03EF5650540E5407002053FD39419E57C
:100186003F9400500302007EE5426402454160034D
:10019600020069F53FF540D3E5409404E53F94003D
:1001A6004003020069AF4074212FF8E664736003D0
:1001B6000202A774222FF8E66434704574242FF8DF
:1001C600E6FF12000E7C007D0A1204F9C006C00785
:1001D60074232540F8E6FF12000E7C007D641204AD
:1001E600F9D0E02FFDD0E03EFCC004C00574252503
:1001F60040F8E6FF12000ED0E02FF562D0E03EF5A3
:1002060061AF4074222FF8E66435704574242FF8E8
:10021600E6FF12000E7C007D0A1204F9C006C00734
:1002260074232540F8E6FF12000E7C007D6412045C
:10023600F9D0E02FFDD0E03EFCC004C005742525B2
:1002460040F8E6FF12000ED0E02FF564D0E03EF550
:1002560063AF4074222FF8E66436704574242FF895
:10026600E6FF12000E7C007D0A1204F9C006C007E4
:1002760074232540F8E6FF12000E7C007D6412040C
:10028600F9D0E02FFDD0E03EFCC004C00574252562
:1002960040F8E6FF12000ED0E02FF566D0E03EF5FE
:0C02A600650540E5407002053F02019D27
:030063000202B2E4
:1002B200C0E0C0D0C3E5609486E55F94064018753F
:1002C2006B00756C00756900756A00755F0075607A
:1002D20000C2B2C2B3C2B40560E5607002055FD36A
:1002E200E56A9428E56994005006D2B4D2B3D2B23A
:1002F200D3E56A9428E5699400403BD3E56C9562A6
:10030200E56B95615004D2B48002C2B4D3E56C951A
:1003120064E56B95635004D2B38002C2B3D3E56C3B
:100322009566E56B95655004D2B28002C2B2056C47
:10033200E56C7002056B056AE56A70020569D0D04A
:03034200D0E032D6
:0804C00002110000021400000B
:0E050B00C203C202D201C200E4F510F50F22B5
:1004E300E4F589758E80F58A758CFDD28CD2A9D2FC
:0604F300B9D2AF02050BB7
:10047D00300023C200850A0EE50E640A6013742154
:10048D002512F8A60E0512E512700205117513015D
:07049D0022E4F511F5122223
:10043E0030013BE51364017021D3E5159404E514F6
:10044E00648094805014C20174212515F8E6F50CD1
:10045E00D2030515E51570020514D3E5159404E5D0
:0F046E0014648094804007E4F513F514F515220B
:03000B000203D11C
:1003D100C0E0C0D0300226150FE50F702B750F035A
:1003E100150BE50B700985080AC202D2008019E5D8
:1003F10008C313F50830B010430880800B20B00803
:10040100D202750F04750B091510E510702A7510CD
:1004110003300324E50D700AC2B1850C09750D097D
:100421008016E509C313F509150DE50D7008D2B164
:0D043100C203D201800292B1D0D0D0E032DF
:10000E00BF3003E4FCFDBF31047C007D01BF320430
:10001E007C007D02BF33047C007D03BF34047C0072
:10002E007D04BF35047C007D05BF36047C007D0653
:10003E00BF37047C007D07BF38047C007D08BF39C4
:09004E00047C007D09AF05AE043D
:010057002286
:10035100020066E493A3F8E493A34003F68001F25C
:1003610008DFF48029E493A3F85407240CC8C333AD
:10037100C4540F4420C8834004F456800146F6DF7C
:10038100E4800B01020408102040809004A4E47E64
:10039100019360BCA3FF543F30E509541FFEE49371
:1003A100A360010ECF54C025E060A840B8E493A338
:1003B100FAE493A3F8E493A3C8C582C8CAC583CA63
:1003C100F0A3C8C582C8CAC583CADFE9DEE780BE1B
:0104C8000033
:1004F900EF8DF0A4A8F0CF8CF0A428CE8DF0A42E17
:02050900FE22D0
:00000001FF
